:040000000C94340028
:100004000C9400000C9400000C9400000C9400006C
:100014000C9400000C9400000C9400000C9400005C
:100024000C9400000C9400000C9400000C9400004C
:100034000C9400000C9400000C9400000C9400003C
:100044000C9400000C9400000C9400000C9400002C
:100054000C9400000C9400000C9400000C9400001C
:100064000C940000F894EE27EFBBF1E0F5BFE5BF78
:100074008DE0A2E0BB27ED938A95E9F780E098E054
:10008400A0E0B1E0ED930197E9F7E0E0EEBBEFEF1C
:10009400EDBFE8E0EEBFC0E0D3E00C945100EFEF19
:1000A400EAB933244424E8E0F0E03E164F0664F451
:1000B400E32DA1E00BD0EBB9A8EEB3E00FD0E1E063
:1000C400F0E03E0E4F1EEFCFECCFFFCFEE230E2E0F
:1000D400EA2F19F0EE0F0A94E9F70895109639F013
:1000E400A89580EA9FE00197F1F71197C9F7089561
:00000001FF
