:020000000C945E
:1000020034000C9400000C9400000C9400000C943A
:1000120000000C9400000C9400000C9400000C945E
:1000220000000C9400000C9400000C9400000C944E
:1000320000000C9400000C9400000C9400000C943E
:1000420000000C9400000C9400000C9400000C942E
:1000520000000C9400000C9400000C9400000C941E
:1000620000000C940000F894EE27EFBBF1E0F5BF1E
:10007200E5BF8DE0A2E0BB27ED938A95E9F780E02A
:1000820098E0A0E0B1E0ED930197E9F7E0E0EEBB84
:10009200EFEFEDBFE8E0EEBFC0E0D3E00C9451001B
:1000A20000E010E0EFEFEAB9E0E0E4B9EFEFE5B924
:1000B200199912C0A8EEB3E019D0E02FA1E00ED03A
:1000C200E095EBB90F5F1F4F0830E0E01E0714F018
:1000D20000E010E0199BFECFEBCFFFCFEE230E2EF8
:1000E200EA2F19F0EE0F0A94E9F70895109639F005
:1000F200A89580EA9FE00197F1F71197C9F7089553
:00000001FF
