:040000000C94340028
:100004000C9400000C9400000C9400000C9400006C
:100014000C9400000C9400000C9400000C9400005C
:100024000C9400000C9400000C9400000C9400004C
:100034000C9400000C9400000C9400000C9400003C
:100044000C9400000C9400000C9400000C9400002C
:100054000C9400000C9400000C9400000C9400001C
:100064000C940000F894EE27EFBBF1E0F5BFE5BF78
:100074008DE0A2E0BB27ED938A95E9F780E098E054
:10008400A0E0B1E0ED930197E9F7E0E0EEBBEFEF1C
:10009400EDBFE8E0EEBFC0E0D3E00C94510000E017
:1000A40010E020E030E0EFEFEAB9E0E0E4B9EFEF90
:1000B400EBB9199904C000240216030609F00FC015
:1000C40025D0E095E121EBB90F5F1F4F0830E0E048
:1000D4001E0724F021E030E007E010E015C0199974
:1000E40005C0E1E0F0E0E217F30709F00DC00ED01F
:1000F400E129EBB901501040112332F420E030E043
:1001040000E010E0EFEFEBB9D4CFFFCFACE2B1E009
:100114000DD01BB0E02FA1E001D00895EE230E2EE8
:10012400EA2F19F0EE0F0A94E9F70895109639F0C2
:10013400A89580EA9FE00197F1F71197C9F7089510
:00000001FF
