:0A0000000C9434000C9400000C94E2
:10000A0000000C9400000C9400000C9400000C9466
:10001A0000000C9400000C9400000C9400000C9456
:10002A0000000C9400000C9400000C9400000C9446
:10003A0000000C9400000C9400000C9400000C9436
:10004A0000000C9400000C9400000C9400000C9426
:10005A0000000C9400000C9400000C940000F8942A
:10006A00EE27EFBBF1E0F5BFE5BF8DE0A2E0BB27CD
:10007A00ED938A95E9F780E098E0A0E0B1E0ED938E
:10008A000197E9F7E0E0EEBBEFEFEDBFE8E0EEBF86
:10009A00C0E0D3E00C945100EFEFEAB9E0E0E0935E
:1000AA00C1000FD03BB8A8EEB3E010D0E0E8F0E012
:1000BA003E164F0614F005D002C0330C441CF2CF92
:1000CA00FFCFE1E0F0E03E2E4F2E0895109639F072
:1000DA00A89580EA9FE00197F1F71197C9F708956B
:00000001FF
