:0E0000000C9434000C9400000C9400000C943E
:10000E0000000C9400000C9400000C9400000C9462
:10001E0000000C9400000C9400000C9400000C9452
:10002E0000000C9400000C9400000C9400000C9442
:10003E0000000C9400000C9400000C9400000C9432
:10004E0000000C9400000C9400000C9400000C9422
:10005E0000000C9400000C940000F894EE27EFBB07
:10006E00F1E0F5BFE5BF8DE0A2E0BB27ED938A95E9
:10007E00E9F780E098E0A0E0B1E0ED930197E9F7B1
:10008E00E0E0EEBBEFEFEDBFE8E0EEBFC0E0D3E0A7
:10009E000C947200E0E0E0938000EAE8E0938100C7
:1000AE0015C0E0916F00E160E0936F00E0E0E09337
:1000BE008500E0938400ECE7E0938900EFEFE09396
:1000CE008800E0913600E270E1F3B19AAFE6B0E05D
:1000DE00EC91EC930895EFEFEAB9E0E0EBB9DADFDB
:1000EE00EFE0EBB9DEDFE0EFEBB9DBDFF9CFFFCF0F
:00000001FF
