:040000000C94340028
:100004000C9400000C9400000C9400000C9400006C
:100014000C9400000C9400000C9400000C9400005C
:100024000C9400000C9400000C9400000C9400004C
:100034000C9400000C9400000C9400000C9400003C
:100044000C9400000C9400000C9400000C9400002C
:100054000C9400000C9400000C9400000C9400001C
:100064000C940000F894EE27EFBBF1E0F5BFE5BF78
:100074008DE0A2E0BB27ED938A95E9F780E098E054
:10008400A0E0B1E0ED930197E9F7E0E0EEBBEFEF1C
:10009400EDBFE8E0EEBFC0E0D3E00C945100EFEF19
:1000A400EAB9E0E0E4B9E093C100E1E0F0E03E2E1B
:1000B4004F2EE0E01999E1E05E2E6624199914C0F0
:1000C400A4E6B0E01BD0E32DA1E010D0EBB9E1E051
:1000D400F0E03E0E4F1EE7E0F0E0E315F40514F403
:1000E400332444241999FECFE9CFFFCFEE230E2EFB
:1000F400EA2F19F0EE0F0A94E9F70895109639F0F3
:10010400A89580EA9FE00197F1F71197C9F7089540
:00000001FF
