:0C0000000C9434000C9451000C9400008F
:10000C000C9400000C9400000C9400000C94000064
:10001C000C9400000C9400000C9400000C94000054
:10002C000C9400000C9400000C9400000C94000044
:10003C000C9400000C9400000C9400000C94000034
:10004C000C9400000C9400000C9400000C94000024
:10005C000C9400000C9400000C940000F894EE2713
:10006C00EFBBF1E0F5BFE5BF8DE0A2E0BB27ED9360
:10007C008A95E9F780E098E0A0E0B1E0ED93019774
:10008C00E9F7E0E0EEBBEFEFEDBFE8E0EEBFC0E07C
:10009C00D3E00C9471000A921A92FA926A937A93B2
:1000AC008A939A93AA93BA93EA93FA93EFB7EA9343
:1000BC00E0E0EBB9AAEFB0E021D0E991EFBFF99104
:1000CC00E991B991A9919991899179916991F99055
:1000DC00199009901895EBEFEAB97894E2E0E09367
:1000EC006900E1E0EDBBECBBE0EF04D0E1E102D054
:1000FC00FBCFFFCFEBB9A4EFB1E000C0109639F005
:10010C00A89580EA9FE00197F1F71197C9F7089538
:00000001FF
