:0E0000000C9439000C9400000C9400000C9439
:10000E0000000C9400000C9400000C9400000C9462
:10001E0000000C9400000C9400000C9400000C9452
:10002E0000000C9400000C9475000C9400000C94CD
:10003E0000000C9400000C9400000C9400000C9432
:10004E0000000C9400000C9400000C9400000C9422
:10005E0000000C9400000C9400000000010004004D
:10006E0068000000F894EE27EFBBF1E0F5BFE5BFA6
:10007E008DE0A2E0BB27ED938A95E9F780E098E04A
:10008E00A0E0B1E0ED930197E9F7EAE6F0E08591A3
:10009E009591009761F0A591B59105901590BF01CE
:1000AE00F00105900D920197E1F7FB01F0CFE0E032
:1000BE00EEBBEFEFEDBFE8E0EEBFC0E0D3E00C9497
:1000CE008400E0918100E560E0938100E0916F0093
:1000DE00E160E0936F0023D078940895EA931FD0E7
:1000EE00E99118951A9310E0143628F4A1E0B0E0C7
:1000FE001DD01F5FF9CF19910895EFEFE4B9E1DF3D
:10010E00E42DEE23E1E009F0EE274E2E442011F00F
:10011E00E1E001C0E0E0E5B9E5DFF2CFFFCFEDEFC2
:10012E00E0938500EFE3E09384000895109639F094
:10013E00A89580EA9FE00197F1F71197C9F7089506
:00000001FF
