:100000000C9434000C9400000C9400000C9400003C
:100010000C9400000C9400000C9400000C94000060
:100020000C9400000C9400000C9400000C94000050
:100030000C9400000C945F000C9400000C940000E1
:100040000C9400000C9400000C9400000C94000030
:100050000C9400000C9400000C9400000C94000020
:100060000C9400000C940000F894EE27EFBBF1E034
:10007000F5BFE5BF8DE0A2E0BB27ED938A95E9F7D8
:1000800080E098E0A0E0B1E0ED930197E9F7E0E0CF
:10009000EEBBEFEFEDBFE8E0EEBFC0E0D3E00C94C5
:1000A0007F00E1E0E0936F00E5E0E0938100E2ECA7
:1000B000E0938500E7EFE0938400789408950A9236
:1000C0001A92FA926A937A938A939A93AA93BA931A
:1000D000EA93FA93EFB7EA93EFEFEBB9A8EEB3E048
:1000E0001DD0E991EFBFF991E991B991A991999149
:1000F000899179916991F990199009901895D1DFBA
:10010000EFEFEAB9E0E0EBB9EAEA04D0E5E502D0C6
:10011000FBCFFFCFEBB9A4E6B0E000C0109639F0FA
:10012000A89580EA9FE00197F1F71197C9F7089524
:00000001FF
